{
  "_format": "hh-sol-artifact-1",
  "contractName": "RevenueDistributor",
  "sourceName": "contracts/RevenueDistributor.sol",
  "abi": [
    {
      "inputs": [
        {
          "internalType": "address",
          "name": "_creator",
          "type": "address"
        },
        {
          "internalType": "uint256",
          "name": "_mintPrice",
          "type": "uint256"
        },
        {
          "internalType": "uint256",
          "name": "_maxSupply",
          "type": "uint256"
        },
        {
          "internalType": "address",
          "name": "_usdcTokenAddress",
          "type": "address"
        }
      ],
      "stateMutability": "nonpayable",
      "type": "constructor"
    },
    {
      "anonymous": false,
      "inputs": [
        {
          "indexed": true,
          "internalType": "address",
          "name": "minter",
          "type": "address"
        },
        {
          "indexed": true,
          "internalType": "uint256",
          "name": "tokenId",
          "type": "uint256"
        }
      ],
      "name": "Minted",
      "type": "event"
    },
    {
      "anonymous": false,
      "inputs": [
        {
          "indexed": true,
          "internalType": "uint256",
          "name": "tokenId",
          "type": "uint256"
        },
        {
          "indexed": false,
          "internalType": "uint256",
          "name": "amount",
          "type": "uint256"
        }
      ],
      "name": "RevenueClaimed",
      "type": "event"
    },
    {
      "anonymous": false,
      "inputs": [
        {
          "indexed": false,
          "internalType": "uint256",
          "name": "amount",
          "type": "uint256"
        }
      ],
      "name": "RevenueDeposited",
      "type": "event"
    },
    {
      "inputs": [
        {
          "internalType": "uint256",
          "name": "tokenId",
          "type": "uint256"
        }
      ],
      "name": "claimRevenue",
      "outputs": [],
      "stateMutability": "nonpayable",
      "type": "function"
    },
    {
      "inputs": [],
      "name": "creator",
      "outputs": [
        {
          "internalType": "address",
          "name": "",
          "type": "address"
        }
      ],
      "stateMutability": "view",
      "type": "function"
    },
    {
      "inputs": [
        {
          "internalType": "uint256",
          "name": "amount",
          "type": "uint256"
        }
      ],
      "name": "depositRevenue",
      "outputs": [],
      "stateMutability": "nonpayable",
      "type": "function"
    },
    {
      "inputs": [
        {
          "internalType": "uint256",
          "name": "tokenId",
          "type": "uint256"
        }
      ],
      "name": "getClaimableRevenue",
      "outputs": [
        {
          "internalType": "uint256",
          "name": "",
          "type": "uint256"
        }
      ],
      "stateMutability": "view",
      "type": "function"
    },
    {
      "inputs": [],
      "name": "maxSupply",
      "outputs": [
        {
          "internalType": "uint256",
          "name": "",
          "type": "uint256"
        }
      ],
      "stateMutability": "view",
      "type": "function"
    },
    {
      "inputs": [
        {
          "internalType": "string",
          "name": "tokenURI",
          "type": "string"
        }
      ],
      "name": "mint",
      "outputs": [],
      "stateMutability": "nonpayable",
      "type": "function"
    },
    {
      "inputs": [],
      "name": "mintPrice",
      "outputs": [
        {
          "internalType": "uint256",
          "name": "",
          "type": "uint256"
        }
      ],
      "stateMutability": "view",
      "type": "function"
    },
    {
      "inputs": [],
      "name": "nftContract",
      "outputs": [
        {
          "internalType": "contract FlowMintNFT",
          "name": "",
          "type": "address"
        }
      ],
      "stateMutability": "view",
      "type": "function"
    },
    {
      "inputs": [
        {
          "internalType": "uint256",
          "name": "",
          "type": "uint256"
        }
      ],
      "name": "revenueClaimedPerToken",
      "outputs": [
        {
          "internalType": "uint256",
          "name": "",
          "type": "uint256"
        }
      ],
      "stateMutability": "view",
      "type": "function"
    },
    {
      "inputs": [],
      "name": "totalRevenueDeposited",
      "outputs": [
        {
          "internalType": "uint256",
          "name": "",
          "type": "uint256"
        }
      ],
      "stateMutability": "view",
      "type": "function"
    },
    {
      "inputs": [],
      "name": "totalSupply",
      "outputs": [
        {
          "internalType": "uint256",
          "name": "",
          "type": "uint256"
        }
      ],
      "stateMutability": "view",
      "type": "function"
    },
    {
      "inputs": [],
      "name": "usdcToken",
      "outputs": [
        {
          "internalType": "contract IERC20",
          "name": "",
          "type": "address"
        }
      ],
      "stateMutability": "view",
      "type": "function"
    }
  ],
  "bytecode": "0x6101206040523480156200001257600080fd5b5060405162004ba738038062004ba783398181016040528101906200003891906200023e565b8373ffffffffffffffffffffffffffffffffffffffff1660808173ffffffffffffffffffffffffffffffffffffffff16815250508260e081815250508161010081815250508073ffffffffffffffffffffffffffffffffffffffff1660c08173ffffffffffffffffffffffffffffffffffffffff1681525050604051620000bf906200018b565b604051809103906000f080158015620000dc573d6000803e3d6000fd5b5073ffffffffffffffffffffffffffffffffffffffff1660a08173ffffffffffffffffffffffffffffffffffffffff168152505060a05173ffffffffffffffffffffffffffffffffffffffff1663f2fde38b306040518263ffffffff1660e01b81526004016200014d9190620002c1565b600060405180830381600087803b1580156200016857600080fd5b505af11580156200017d573d6000803e3d6000fd5b5050505050505050620002de565b6133d280620017d583390190565b600080fd5b600073ffffffffffffffffffffffffffffffffffffffff82169050919050565b6000620001cb826200019e565b9050919050565b620001dd81620001be565b8114620001e957600080fd5b50565b600081519050620001fd81620001d2565b92915050565b6000819050919050565b620002188162000203565b81146200022457600080fd5b50565b60008151905062000238816200020d565b92915050565b600080600080608085870312156200025b576200025a62000199565b5b60006200026b87828801620001ec565b94505060206200027e8782880162000227565b9350506040620002918782880162000227565b9250506060620002a487828801620001ec565b91505092959194509250565b620002bb81620001be565b82525050565b6000602082019050620002d86000830184620002b0565b92915050565b60805160a05160c05160e051610100516114736200036260003960008181610676015281816106a7015281816109320152610956015260006105470152600081816102650152818161041201526107d80152600081816102a6015281816105840152818161090e01526109d3015260008181610241015261070501526114736000f3fe608060405234801561001057600080fd5b50600436106100b45760003560e01c806391d929521161007157806391d929521461017d5780639624fefb146101ad578063bc1ca3e9146101cb578063d56d229d146101e7578063d5abeb0114610205578063d85d3d2714610223576100b4565b806302d05d3f146100b957806311eac855146100d757806318160ddd146100f55780631cb536ed1461011357806326778afc1461012f5780636817c76c1461015f575b600080fd5b6100c161023f565b6040516100ce9190610afa565b60405180910390f35b6100df610263565b6040516100ec9190610b74565b60405180910390f35b6100fd610287565b60405161010a9190610ba8565b60405180910390f35b61012d60048036038101906101289190610c03565b61028d565b005b61014960048036038101906101449190610c03565b61052d565b6040516101569190610ba8565b60405180910390f35b610167610545565b6040516101749190610ba8565b60405180910390f35b61019760048036038101906101929190610c03565b610569565b6040516101a49190610ba8565b60405180910390f35b6101b56106fd565b6040516101c29190610ba8565b60405180910390f35b6101e560048036038101906101e09190610c03565b610703565b005b6101ef61090c565b6040516101fc9190610c51565b60405180910390f35b61020d610930565b60405161021a9190610ba8565b60405180910390f35b61023d60048036038101906102389190610db2565b610954565b005b7f000000000000000000000000000000000000000000000000000000000000000081565b7f000000000000000000000000000000000000000000000000000000000000000081565b60005481565b3373ffffffffffffffffffffffffffffffffffffffff167f000000000000000000000000000000000000000000000000000000000000000073ffffffffffffffffffffffffffffffffffffffff16636352211e836040518263ffffffff1660e01b81526004016102fd9190610ba8565b602060405180830381865afa15801561031a573d6000803e3d6000fd5b505050506040513d601f19601f8201168201806040525081019061033e9190610e27565b73ffffffffffffffffffffffffffffffffffffffff1614610394576040517f08c379a000000000000000000000000000000000000000000000000000000000815260040161038b90610eb1565b60405180910390fd5b600061039f82610569565b9050600081116103e4576040517f08c379a00000000000000000000000000000000000000000000000000000000081526004016103db90610f1d565b60405180910390fd5b806002600084815260200190815260200160002060008282546104079190610f6c565b9250508190555060007f000000000000000000000000000000000000000000000000000000000000000073ffffffffffffffffffffffffffffffffffffffff1663a9059cbb33846040518363ffffffff1660e01b815260040161046b929190610fa0565b6020604051808303816000875af115801561048a573d6000803e3d6000fd5b505050506040513d601f19601f820116820180604052508101906104ae9190611001565b9050806104f0576040517f08c379a00000000000000000000000000000000000000000000000000000000081526004016104e79061107a565b60405180910390fd5b827fa7d59a5a64a605cc122b04d30a6f20229772b1db53c60785f8d9bef72192c696836040516105209190610ba8565b60405180910390a2505050565b60026020528060005260406000206000915090505481565b7f000000000000000000000000000000000000000000000000000000000000000081565b60008073ffffffffffffffffffffffffffffffffffffffff167f000000000000000000000000000000000000000000000000000000000000000073ffffffffffffffffffffffffffffffffffffffff16636352211e846040518263ffffffff1660e01b81526004016105db9190610ba8565b602060405180830381865afa1580156105f8573d6000803e3d6000fd5b505050506040513d601f19601f8201168201806040525081019061061c9190610e27565b73ffffffffffffffffffffffffffffffffffffffff1603610672576040517f08c379a0000000000000000000000000000000000000000000000000000000008152600401610669906110e6565b60405180910390fd5b60007f0000000000000000000000000000000000000000000000000000000000000000036106a357600090506106f8565b60007f00000000000000000000000000000000000000000000000000000000000000006001546106d39190611135565b90506002600084815260200190815260200160002054816106f49190611166565b9150505b919050565b60015481565b7f000000000000000000000000000000000000000000000000000000000000000073ffffffffffffffffffffffffffffffffffffffff163373ffffffffffffffffffffffffffffffffffffffff1614610791576040517f08c379a0000000000000000000000000000000000000000000000000000000008152600401610788906111e6565b60405180910390fd5b600081116107d4576040517f08c379a00000000000000000000000000000000000000000000000000000000081526004016107cb90611252565b60405180910390fd5b60007f000000000000000000000000000000000000000000000000000000000000000073ffffffffffffffffffffffffffffffffffffffff166323b872dd3330856040518463ffffffff1660e01b815260040161083393929190611272565b6020604051808303816000875af1158015610852573d6000803e3d6000fd5b505050506040513d601f19601f820116820180604052508101906108769190611001565b9050806108b8576040517f08c379a00000000000000000000000000000000000000000000000000000000081526004016108af9061107a565b60405180910390fd5b81600160008282546108ca9190610f6c565b925050819055507fa233bf660ff45a53efdacc9f262f3ba6a03b00e58e587d8536a4cfec59680a1c826040516109009190610ba8565b60405180910390a15050565b7f000000000000000000000000000000000000000000000000000000000000000081565b7f000000000000000000000000000000000000000000000000000000000000000081565b7f0000000000000000000000000000000000000000000000000000000000000000600054106109b8576040517f08c379a00000000000000000000000000000000000000000000000000000000081526004016109af906112f5565b60405180910390fd5b6000808154809291906109ca90611315565b919050555060007f000000000000000000000000000000000000000000000000000000000000000073ffffffffffffffffffffffffffffffffffffffff1663d204c45e33846040518363ffffffff1660e01b8152600401610a2c9291906113cb565b6020604051808303816000875af1158015610a4b573d6000803e3d6000fd5b505050506040513d601f19601f82011682018060405250810190610a6f9190611410565b9050803373ffffffffffffffffffffffffffffffffffffffff167f30385c845b448a36257a6a1716e6ad2e1bc2cbe333cde1e69fe849ad6511adfe60405160405180910390a35050565b600073ffffffffffffffffffffffffffffffffffffffff82169050919050565b6000610ae482610ab9565b9050919050565b610af481610ad9565b82525050565b6000602082019050610b0f6000830184610aeb565b92915050565b6000819050919050565b6000610b3a610b35610b3084610ab9565b610b15565b610ab9565b9050919050565b6000610b4c82610b1f565b9050919050565b6000610b5e82610b41565b9050919050565b610b6e81610b53565b82525050565b6000602082019050610b896000830184610b65565b92915050565b6000819050919050565b610ba281610b8f565b82525050565b6000602082019050610bbd6000830184610b99565b92915050565b6000604051905090565b600080fd5b600080fd5b610be081610b8f565b8114610beb57600080fd5b50565b600081359050610bfd81610bd7565b92915050565b600060208284031215610c1957610c18610bcd565b5b6000610c2784828501610bee565b91505092915050565b6000610c3b82610b41565b9050919050565b610c4b81610c30565b82525050565b6000602082019050610c666000830184610c42565b92915050565b600080fd5b600080fd5b6000601f19601f8301169050919050565b7f4e487b7100000000000000000000000000000000000000000000000000000000600052604160045260246000fd5b610cbf82610c76565b810181811067ffffffffffffffff82111715610cde57610cdd610c87565b5b80604052505050565b6000610cf1610bc3565b9050610cfd8282610cb6565b919050565b600067ffffffffffffffff821115610d1d57610d1c610c87565b5b610d2682610c76565b9050602081019050919050565b82818337600083830152505050565b6000610d55610d5084610d02565b610ce7565b905082815260208101848484011115610d7157610d70610c71565b5b610d7c848285610d33565b509392505050565b600082601f830112610d9957610d98610c6c565b5b8135610da9848260208601610d42565b91505092915050565b600060208284031215610dc857610dc7610bcd565b5b600082013567ffffffffffffffff811115610de657610de5610bd2565b5b610df284828501610d84565b91505092915050565b610e0481610ad9565b8114610e0f57600080fd5b50565b600081519050610e2181610dfb565b92915050565b600060208284031215610e3d57610e3c610bcd565b5b6000610e4b84828501610e12565b91505092915050565b600082825260208201905092915050565b7f4e6f7420746865206f776e657200000000000000000000000000000000000000600082015250565b6000610e9b600d83610e54565b9150610ea682610e65565b602082019050919050565b60006020820190508181036000830152610eca81610e8e565b9050919050565b7f4e6f20726576656e756520746f20636c61696d00000000000000000000000000600082015250565b6000610f07601383610e54565b9150610f1282610ed1565b602082019050919050565b60006020820190508181036000830152610f3681610efa565b9050919050565b7f4e487b7100000000000000000000000000000000000000000000000000000000600052601160045260246000fd5b6000610f7782610b8f565b9150610f8283610b8f565b9250828201905080821115610f9a57610f99610f3d565b5b92915050565b6000604082019050610fb56000830185610aeb565b610fc26020830184610b99565b9392505050565b60008115159050919050565b610fde81610fc9565b8114610fe957600080fd5b50565b600081519050610ffb81610fd5565b92915050565b60006020828403121561101757611016610bcd565b5b600061102584828501610fec565b91505092915050565b7f55534443207472616e73666572206661696c6564000000000000000000000000600082015250565b6000611064601483610e54565b915061106f8261102e565b602082019050919050565b6000602082019050818103600083015261109381611057565b9050919050565b7f546f6b656e20646f6573206e6f74206578697374000000000000000000000000600082015250565b60006110d0601483610e54565b91506110db8261109a565b602082019050919050565b600060208201905081810360008301526110ff816110c3565b9050919050565b7f4e487b7100000000000000000000000000000000000000000000000000000000600052601260045260246000fd5b600061114082610b8f565b915061114b83610b8f565b92508261115b5761115a611106565b5b828204905092915050565b600061117182610b8f565b915061117c83610b8f565b925082820390508181111561119457611193610f3d565b5b92915050565b7f4f6e6c792063726561746f722063616e206465706f7369740000000000000000600082015250565b60006111d0601883610e54565b91506111db8261119a565b602082019050919050565b600060208201905081810360008301526111ff816111c3565b9050919050565b7f416d6f756e74206d757374206265203e20300000000000000000000000000000600082015250565b600061123c601283610e54565b915061124782611206565b602082019050919050565b6000602082019050818103600083015261126b8161122f565b9050919050565b60006060820190506112876000830186610aeb565b6112946020830185610aeb565b6112a16040830184610b99565b949350505050565b7f536f6c64206f7574000000000000000000000000000000000000000000000000600082015250565b60006112df600883610e54565b91506112ea826112a9565b602082019050919050565b6000602082019050818103600083015261130e816112d2565b9050919050565b600061132082610b8f565b91507fffffffffffffffffffffffffffffffffffffffffffffffffffffffffffffffff820361135257611351610f3d565b5b600182019050919050565b600081519050919050565b60005b8381101561138657808201518184015260208101905061136b565b60008484015250505050565b600061139d8261135d565b6113a78185610e54565b93506113b7818560208601611368565b6113c081610c76565b840191505092915050565b60006040820190506113e06000830185610aeb565b81810360208301526113f28184611392565b90509392505050565b60008151905061140a81610bd7565b92915050565b60006020828403121561142657611425610bcd565b5b6000611434848285016113fb565b9150509291505056fea2646970667358221220b6fe5b57524dc2572bdf2c6c9347f6b5dd85c974679ae94f0d0e6aa03e37192364736f6c6343000814003360806040523480156200001157600080fd5b506040518060400160405280601a81526020017f466c6f774d696e7420526576656e7565205368617265204e46540000000000008152506040518060400160405280600381526020017f464d52000000000000000000000000000000000000000000000000000000000081525081600090816200008f919062000412565b508060019081620000a1919062000412565b505050620000c4620000b8620000ca60201b60201c565b620000d260201b60201c565b620004f9565b600033905090565b6000600760009054906101000a900473ffffffffffffffffffffffffffffffffffffffff16905081600760006101000a81548173ffffffffffffffffffffffffffffffffffffffff021916908373ffffffffffffffffffffffffffffffffffffffff1602179055508173ffffffffffffffffffffffffffffffffffffffff168173ffffffffffffffffffffffffffffffffffffffff167f8be0079c531659141344cd1fd0a4f28419497f9722a3daafe3b4186f6b6457e060405160405180910390a35050565b600081519050919050565b7f4e487b7100000000000000000000000000000000000000000000000000000000600052604160045260246000fd5b7f4e487b7100000000000000000000000000000000000000000000000000000000600052602260045260246000fd5b600060028204905060018216806200021a57607f821691505b60208210810362000230576200022f620001d2565b5b50919050565b60008190508160005260206000209050919050565b60006020601f8301049050919050565b600082821b905092915050565b6000600883026200029a7fffffffffffffffffffffffffffffffffffffffffffffffffffffffffffffffff826200025b565b620002a686836200025b565b95508019841693508086168417925050509392505050565b6000819050919050565b6000819050919050565b6000620002f3620002ed620002e784620002be565b620002c8565b620002be565b9050919050565b6000819050919050565b6200030f83620002d2565b620003276200031e82620002fa565b84845462000268565b825550505050565b600090565b6200033e6200032f565b6200034b81848462000304565b505050565b5b8181101562000373576200036760008262000334565b60018101905062000351565b5050565b601f821115620003c2576200038c8162000236565b62000397846200024b565b81016020851015620003a7578190505b620003bf620003b6856200024b565b83018262000350565b50505b505050565b600082821c905092915050565b6000620003e760001984600802620003c7565b1980831691505092915050565b6000620004028383620003d4565b9150826002028217905092915050565b6200041d8262000198565b67ffffffffffffffff811115620004395762000438620001a3565b5b62000445825462000201565b6200045282828562000377565b600060209050601f8311600181146200048a576000841562000475578287015190505b620004818582620003f4565b865550620004f1565b601f1984166200049a8662000236565b60005b82811015620004c4578489015182556001820191506020850194506020810190506200049d565b86831015620004e45784890151620004e0601f891682620003d4565b8355505b6001600288020188555050505b505050505050565b612ec980620005096000396000f3fe608060405234801561001057600080fd5b506004361061010b5760003560e01c8063715018a6116100a2578063b88d4fde11610071578063b88d4fde146102a4578063c87b56dd146102c0578063d204c45e146102f0578063e985e9c514610320578063f2fde38b146103505761010b565b8063715018a6146102425780638da5cb5b1461024c57806395d89b411461026a578063a22cb465146102885761010b565b806323b872dd116100de57806323b872dd146101aa57806342842e0e146101c65780636352211e146101e257806370a08231146102125761010b565b806301ffc9a71461011057806306fdde0314610140578063081812fc1461015e578063095ea7b31461018e575b600080fd5b61012a60048036038101906101259190611cba565b61036c565b6040516101379190611d02565b60405180910390f35b6101486103cd565b6040516101559190611dad565b60405180910390f35b61017860048036038101906101739190611e05565b61045f565b6040516101859190611e73565b60405180910390f35b6101a860048036038101906101a39190611eba565b6104a5565b005b6101c460048036038101906101bf9190611efa565b6105bc565b005b6101e060048036038101906101db9190611efa565b61061c565b005b6101fc60048036038101906101f79190611e05565b61063c565b6040516102099190611e73565b60405180910390f35b61022c60048036038101906102279190611f4d565b6106c2565b6040516102399190611f89565b60405180910390f35b61024a610779565b005b61025461078d565b6040516102619190611e73565b60405180910390f35b6102726107b7565b60405161027f9190611dad565b60405180910390f35b6102a2600480360381019061029d9190611fd0565b610849565b005b6102be60048036038101906102b99190612145565b61085f565b005b6102da60048036038101906102d59190611e05565b6108c1565b6040516102e79190611dad565b60405180910390f35b61030a60048036038101906103059190612269565b6109d3565b6040516103179190611f89565b60405180910390f35b61033a600480360381019061033591906122c5565b610a13565b6040516103479190611d02565b60405180910390f35b61036a60048036038101906103659190611f4d565b610aa7565b005b6000634906490660e01b7bffffffffffffffffffffffffffffffffffffffffffffffffffffffff1916827bffffffffffffffffffffffffffffffffffffffffffffffffffffffff191614806103c657506103c582610b2a565b5b9050919050565b6060600080546103dc90612334565b80601f016020809104026020016040519081016040528092919081815260200182805461040890612334565b80156104555780601f1061042a57610100808354040283529160200191610455565b820191906000526020600020905b81548152906001019060200180831161043857829003601f168201915b5050505050905090565b600061046a82610c0c565b6004600083815260200190815260200160002060009054906101000a900473ffffffffffffffffffffffffffffffffffffffff169050919050565b60006104b08261063c565b90508073ffffffffffffffffffffffffffffffffffffffff168373ffffffffffffffffffffffffffffffffffffffff1603610520576040517f08c379a0000000000000000000000000000000000000000000000000000000008152600401610517906123d7565b60405180910390fd5b8073ffffffffffffffffffffffffffffffffffffffff1661053f610c57565b73ffffffffffffffffffffffffffffffffffffffff16148061056e575061056d81610568610c57565b610a13565b5b6105ad576040517f08c379a00000000000000000000000000000000000000000000000000000000081526004016105a490612469565b60405180910390fd5b6105b78383610c5f565b505050565b6105cd6105c7610c57565b82610d18565b61060c576040517f08c379a0000000000000000000000000000000000000000000000000000000008152600401610603906124fb565b60405180910390fd5b610617838383610dad565b505050565b6106378383836040518060200160405280600081525061085f565b505050565b600080610648836110a6565b9050600073ffffffffffffffffffffffffffffffffffffffff168173ffffffffffffffffffffffffffffffffffffffff16036106b9576040517f08c379a00000000000000000000000000000000000000000000000000000000081526004016106b090612567565b60405180910390fd5b80915050919050565b60008073ffffffffffffffffffffffffffffffffffffffff168273ffffffffffffffffffffffffffffffffffffffff1603610732576040517f08c379a0000000000000000000000000000000000000000000000000000000008152600401610729906125f9565b60405180910390fd5b600360008373ffffffffffffffffffffffffffffffffffffffff1673ffffffffffffffffffffffffffffffffffffffff168152602001908152602001600020549050919050565b6107816110e3565b61078b6000611161565b565b6000600760009054906101000a900473ffffffffffffffffffffffffffffffffffffffff16905090565b6060600180546107c690612334565b80601f01602080910402602001604051908101604052809291908181526020018280546107f290612334565b801561083f5780601f106108145761010080835404028352916020019161083f565b820191906000526020600020905b81548152906001019060200180831161082257829003601f168201915b5050505050905090565b61085b610854610c57565b8383611227565b5050565b61087061086a610c57565b83610d18565b6108af576040517f08c379a00000000000000000000000000000000000000000000000000000000081526004016108a6906124fb565b60405180910390fd5b6108bb84848484611393565b50505050565b60606108cc82610c0c565b60006006600084815260200190815260200160002080546108ec90612334565b80601f016020809104026020016040519081016040528092919081815260200182805461091890612334565b80156109655780601f1061093a57610100808354040283529160200191610965565b820191906000526020600020905b81548152906001019060200180831161094857829003601f168201915b5050505050905060006109766113ef565b9050600081510361098b5781925050506109ce565b6000825111156109c05780826040516020016109a8929190612655565b604051602081830303815290604052925050506109ce565b6109c984611406565b925050505b919050565b60006109dd6110e3565b60006109e9600861146e565b90506109f5600861147c565b6109ff8482611492565b610a0981846114b0565b8091505092915050565b6000600560008473ffffffffffffffffffffffffffffffffffffffff1673ffffffffffffffffffffffffffffffffffffffff16815260200190815260200160002060008373ffffffffffffffffffffffffffffffffffffffff1673ffffffffffffffffffffffffffffffffffffffff16815260200190815260200160002060009054906101000a900460ff16905092915050565b610aaf6110e3565b600073ffffffffffffffffffffffffffffffffffffffff168173ffffffffffffffffffffffffffffffffffffffff1603610b1e576040517f08c379a0000000000000000000000000000000000000000000000000000000008152600401610b15906126eb565b60405180910390fd5b610b2781611161565b50565b60007f80ac58cd000000000000000000000000000000000000000000000000000000007bffffffffffffffffffffffffffffffffffffffffffffffffffffffff1916827bffffffffffffffffffffffffffffffffffffffffffffffffffffffff19161480610bf557507f5b5e139f000000000000000000000000000000000000000000000000000000007bffffffffffffffffffffffffffffffffffffffffffffffffffffffff1916827bffffffffffffffffffffffffffffffffffffffffffffffffffffffff1916145b80610c055750610c0482611554565b5b9050919050565b610c15816115be565b610c54576040517f08c379a0000000000000000000000000000000000000000000000000000000008152600401610c4b90612567565b60405180910390fd5b50565b600033905090565b816004600083815260200190815260200160002060006101000a81548173ffffffffffffffffffffffffffffffffffffffff021916908373ffffffffffffffffffffffffffffffffffffffff160217905550808273ffffffffffffffffffffffffffffffffffffffff16610cd28361063c565b73ffffffffffffffffffffffffffffffffffffffff167f8c5be1e5ebec7d5bd14f71427d1e84f3dd0314c0f7b2291e5b200ac8c7c3b92560405160405180910390a45050565b600080610d248361063c565b90508073ffffffffffffffffffffffffffffffffffffffff168473ffffffffffffffffffffffffffffffffffffffff161480610d665750610d658185610a13565b5b80610da457508373ffffffffffffffffffffffffffffffffffffffff16610d8c8461045f565b73ffffffffffffffffffffffffffffffffffffffff16145b91505092915050565b8273ffffffffffffffffffffffffffffffffffffffff16610dcd8261063c565b73ffffffffffffffffffffffffffffffffffffffff1614610e23576040517f08c379a0000000000000000000000000000000000000000000000000000000008152600401610e1a9061277d565b60405180910390fd5b600073ffffffffffffffffffffffffffffffffffffffff168273ffffffffffffffffffffffffffffffffffffffff1603610e92576040517f08c379a0000000000000000000000000000000000000000000000000000000008152600401610e899061280f565b60405180910390fd5b610e9f83838360016115ff565b8273ffffffffffffffffffffffffffffffffffffffff16610ebf8261063c565b73ffffffffffffffffffffffffffffffffffffffff1614610f15576040517f08c379a0000000000000000000000000000000000000000000000000000000008152600401610f0c9061277d565b60405180910390fd5b6004600082815260200190815260200160002060006101000a81549073ffffffffffffffffffffffffffffffffffffffff02191690556001600360008573ffffffffffffffffffffffffffffffffffffffff1673ffffffffffffffffffffffffffffffffffffffff168152602001908152602001600020600082825403925050819055506001600360008473ffffffffffffffffffffffffffffffffffffffff1673ffffffffffffffffffffffffffffffffffffffff16815260200190815260200160002060008282540192505081905550816002600083815260200190815260200160002060006101000a81548173ffffffffffffffffffffffffffffffffffffffff021916908373ffffffffffffffffffffffffffffffffffffffff160217905550808273ffffffffffffffffffffffffffffffffffffffff168473ffffffffffffffffffffffffffffffffffffffff167fddf252ad1be2c89b69c2b068fc378daa952ba7f163c4a11628f55a4df523b3ef60405160405180910390a46110a18383836001611605565b505050565b60006002600083815260200190815260200160002060009054906101000a900473ffffffffffffffffffffffffffffffffffffffff169050919050565b6110eb610c57565b73ffffffffffffffffffffffffffffffffffffffff1661110961078d565b73ffffffffffffffffffffffffffffffffffffffff161461115f576040517f08c379a00000000000000000000000000000000000000000000000000000000081526004016111569061287b565b60405180910390fd5b565b6000600760009054906101000a900473ffffffffffffffffffffffffffffffffffffffff16905081600760006101000a81548173ffffffffffffffffffffffffffffffffffffffff021916908373ffffffffffffffffffffffffffffffffffffffff1602179055508173ffffffffffffffffffffffffffffffffffffffff168173ffffffffffffffffffffffffffffffffffffffff167f8be0079c531659141344cd1fd0a4f28419497f9722a3daafe3b4186f6b6457e060405160405180910390a35050565b8173ffffffffffffffffffffffffffffffffffffffff168373ffffffffffffffffffffffffffffffffffffffff1603611295576040517f08c379a000000000000000000000000000000000000000000000000000000000815260040161128c906128e7565b60405180910390fd5b80600560008573ffffffffffffffffffffffffffffffffffffffff1673ffffffffffffffffffffffffffffffffffffffff16815260200190815260200160002060008473ffffffffffffffffffffffffffffffffffffffff1673ffffffffffffffffffffffffffffffffffffffff16815260200190815260200160002060006101000a81548160ff0219169083151502179055508173ffffffffffffffffffffffffffffffffffffffff168373ffffffffffffffffffffffffffffffffffffffff167f17307eab39ab6107e8899845ad3d59bd9653f200f220920489ca2b5937696c31836040516113869190611d02565b60405180910390a3505050565b61139e848484610dad565b6113aa8484848461160b565b6113e9576040517f08c379a00000000000000000000000000000000000000000000000000000000081526004016113e090612979565b60405180910390fd5b50505050565b606060405180602001604052806000815250905090565b606061141182610c0c565b600061141b6113ef565b9050600081511161143b5760405180602001604052806000815250611466565b8061144584611792565b604051602001611456929190612655565b6040516020818303038152906040525b915050919050565b600081600001549050919050565b6001816000016000828254019250508190555050565b6114ac828260405180602001604052806000815250611860565b5050565b6114b9826115be565b6114f8576040517f08c379a00000000000000000000000000000000000000000000000000000000081526004016114ef90612a0b565b60405180910390fd5b806006600084815260200190815260200160002090816115189190612bd7565b507ff8e1a15aba9398e019f0b49df1a4fde98ee17ae345cb5f6b5e2c27f5033e8ce7826040516115489190611f89565b60405180910390a15050565b60007f01ffc9a7000000000000000000000000000000000000000000000000000000007bffffffffffffffffffffffffffffffffffffffffffffffffffffffff1916827bffffffffffffffffffffffffffffffffffffffffffffffffffffffff1916149050919050565b60008073ffffffffffffffffffffffffffffffffffffffff166115e0836110a6565b73ffffffffffffffffffffffffffffffffffffffff1614159050919050565b50505050565b50505050565b600061162c8473ffffffffffffffffffffffffffffffffffffffff166118bb565b15611785578373ffffffffffffffffffffffffffffffffffffffff1663150b7a02611655610c57565b8786866040518563ffffffff1660e01b81526004016116779493929190612cfe565b6020604051808303816000875af19250505080156116b357506040513d601f19601f820116820180604052508101906116b09190612d5f565b60015b611735573d80600081146116e3576040519150601f19603f3d011682016040523d82523d6000602084013e6116e8565b606091505b50600081510361172d576040517f08c379a000000000000000000000000000000000000000000000000000000000815260040161172490612979565b60405180910390fd5b805181602001fd5b63150b7a0260e01b7bffffffffffffffffffffffffffffffffffffffffffffffffffffffff1916817bffffffffffffffffffffffffffffffffffffffffffffffffffffffff19161491505061178a565b600190505b949350505050565b6060600060016117a1846118de565b01905060008167ffffffffffffffff8111156117c0576117bf61201a565b5b6040519080825280601f01601f1916602001820160405280156117f25781602001600182028036833780820191505090505b509050600082602001820190505b600115611855578080600190039150507f3031323334353637383961626364656600000000000000000000000000000000600a86061a8153600a858161184957611848612d8c565b5b04945060008503611800575b819350505050919050565b61186a8383611a31565b611877600084848461160b565b6118b6576040517f08c379a00000000000000000000000000000000000000000000000000000000081526004016118ad90612979565b60405180910390fd5b505050565b6000808273ffffffffffffffffffffffffffffffffffffffff163b119050919050565b600080600090507a184f03e93ff9f4daa797ed6e38ed64bf6a1f010000000000000000831061193c577a184f03e93ff9f4daa797ed6e38ed64bf6a1f010000000000000000838161193257611931612d8c565b5b0492506040810190505b6d04ee2d6d415b85acef81000000008310611979576d04ee2d6d415b85acef8100000000838161196f5761196e612d8c565b5b0492506020810190505b662386f26fc1000083106119a857662386f26fc10000838161199e5761199d612d8c565b5b0492506010810190505b6305f5e10083106119d1576305f5e10083816119c7576119c6612d8c565b5b0492506008810190505b61271083106119f65761271083816119ec576119eb612d8c565b5b0492506004810190505b60648310611a195760648381611a0f57611a0e612d8c565b5b0492506002810190505b600a8310611a28576001810190505b80915050919050565b600073ffffffffffffffffffffffffffffffffffffffff168273ffffffffffffffffffffffffffffffffffffffff1603611aa0576040517f08c379a0000000000000000000000000000000000000000000000000000000008152600401611a9790612e07565b60405180910390fd5b611aa9816115be565b15611ae9576040517f08c379a0000000000000000000000000000000000000000000000000000000008152600401611ae090612e73565b60405180910390fd5b611af76000838360016115ff565b611b00816115be565b15611b40576040517f08c379a0000000000000000000000000000000000000000000000000000000008152600401611b3790612e73565b60405180910390fd5b6001600360008473ffffffffffffffffffffffffffffffffffffffff1673ffffffffffffffffffffffffffffffffffffffff16815260200190815260200160002060008282540192505081905550816002600083815260200190815260200160002060006101000a81548173ffffffffffffffffffffffffffffffffffffffff021916908373ffffffffffffffffffffffffffffffffffffffff160217905550808273ffffffffffffffffffffffffffffffffffffffff16600073ffffffffffffffffffffffffffffffffffffffff167fddf252ad1be2c89b69c2b068fc378daa952ba7f163c4a11628f55a4df523b3ef60405160405180910390a4611c4a600083836001611605565b5050565b6000604051905090565b600080fd5b600080fd5b60007fffffffff0000000000000000000000000000000000000000000000000000000082169050919050565b611c9781611c62565b8114611ca257600080fd5b50565b600081359050611cb481611c8e565b92915050565b600060208284031215611cd057611ccf611c58565b5b6000611cde84828501611ca5565b91505092915050565b60008115159050919050565b611cfc81611ce7565b82525050565b6000602082019050611d176000830184611cf3565b92915050565b600081519050919050565b600082825260208201905092915050565b60005b83811015611d57578082015181840152602081019050611d3c565b60008484015250505050565b6000601f19601f8301169050919050565b6000611d7f82611d1d565b611d898185611d28565b9350611d99818560208601611d39565b611da281611d63565b840191505092915050565b60006020820190508181036000830152611dc78184611d74565b905092915050565b6000819050919050565b611de281611dcf565b8114611ded57600080fd5b50565b600081359050611dff81611dd9565b92915050565b600060208284031215611e1b57611e1a611c58565b5b6000611e2984828501611df0565b91505092915050565b600073ffffffffffffffffffffffffffffffffffffffff82169050919050565b6000611e5d82611e32565b9050919050565b611e6d81611e52565b82525050565b6000602082019050611e886000830184611e64565b92915050565b611e9781611e52565b8114611ea257600080fd5b50565b600081359050611eb481611e8e565b92915050565b60008060408385031215611ed157611ed0611c58565b5b6000611edf85828601611ea5565b9250506020611ef085828601611df0565b9150509250929050565b600080600060608486031215611f1357611f12611c58565b5b6000611f2186828701611ea5565b9350506020611f3286828701611ea5565b9250506040611f4386828701611df0565b9150509250925092565b600060208284031215611f6357611f62611c58565b5b6000611f7184828501611ea5565b91505092915050565b611f8381611dcf565b82525050565b6000602082019050611f9e6000830184611f7a565b92915050565b611fad81611ce7565b8114611fb857600080fd5b50565b600081359050611fca81611fa4565b92915050565b60008060408385031215611fe757611fe6611c58565b5b6000611ff585828601611ea5565b925050602061200685828601611fbb565b9150509250929050565b600080fd5b600080fd5b7f4e487b7100000000000000000000000000000000000000000000000000000000600052604160045260246000fd5b61205282611d63565b810181811067ffffffffffffffff821117156120715761207061201a565b5b80604052505050565b6000612084611c4e565b90506120908282612049565b919050565b600067ffffffffffffffff8211156120b0576120af61201a565b5b6120b982611d63565b9050602081019050919050565b82818337600083830152505050565b60006120e86120e384612095565b61207a565b90508281526020810184848401111561210457612103612015565b5b61210f8482856120c6565b509392505050565b600082601f83011261212c5761212b612010565b5b813561213c8482602086016120d5565b91505092915050565b6000806000806080858703121561215f5761215e611c58565b5b600061216d87828801611ea5565b945050602061217e87828801611ea5565b935050604061218f87828801611df0565b925050606085013567ffffffffffffffff8111156121b0576121af611c5d565b5b6121bc87828801612117565b91505092959194509250565b600067ffffffffffffffff8211156121e3576121e261201a565b5b6121ec82611d63565b9050602081019050919050565b600061220c612207846121c8565b61207a565b90508281526020810184848401111561222857612227612015565b5b6122338482856120c6565b509392505050565b600082601f8301126122505761224f612010565b5b81356122608482602086016121f9565b91505092915050565b600080604083850312156122805761227f611c58565b5b600061228e85828601611ea5565b925050602083013567ffffffffffffffff8111156122af576122ae611c5d565b5b6122bb8582860161223b565b9150509250929050565b600080604083850312156122dc576122db611c58565b5b60006122ea85828601611ea5565b92505060206122fb85828601611ea5565b9150509250929050565b7f4e487b7100000000000000000000000000000000000000000000000000000000600052602260045260246000fd5b6000600282049050600182168061234c57607f821691505b60208210810361235f5761235e612305565b5b50919050565b7f4552433732313a20617070726f76616c20746f2063757272656e74206f776e6560008201527f7200000000000000000000000000000000000000000000000000000000000000602082015250565b60006123c1602183611d28565b91506123cc82612365565b604082019050919050565b600060208201905081810360008301526123f0816123b4565b9050919050565b7f4552433732313a20617070726f76652063616c6c6572206973206e6f7420746f60008201527f6b656e206f776e6572206f7220617070726f76656420666f7220616c6c000000602082015250565b6000612453603d83611d28565b915061245e826123f7565b604082019050919050565b6000602082019050818103600083015261248281612446565b9050919050565b7f4552433732313a2063616c6c6572206973206e6f7420746f6b656e206f776e6560008201527f72206f7220617070726f76656400000000000000000000000000000000000000602082015250565b60006124e5602d83611d28565b91506124f082612489565b604082019050919050565b60006020820190508181036000830152612514816124d8565b9050919050565b7f4552433732313a20696e76616c696420746f6b656e2049440000000000000000600082015250565b6000612551601883611d28565b915061255c8261251b565b602082019050919050565b6000602082019050818103600083015261258081612544565b9050919050565b7f4552433732313a2061646472657373207a65726f206973206e6f74206120766160008201527f6c6964206f776e65720000000000000000000000000000000000000000000000602082015250565b60006125e3602983611d28565b91506125ee82612587565b604082019050919050565b60006020820190508181036000830152612612816125d6565b9050919050565b600081905092915050565b600061262f82611d1d565b6126398185612619565b9350612649818560208601611d39565b80840191505092915050565b60006126618285612624565b915061266d8284612624565b91508190509392505050565b7f4f776e61626c653a206e6577206f776e657220697320746865207a65726f206160008201527f6464726573730000000000000000000000000000000000000000000000000000602082015250565b60006126d5602683611d28565b91506126e082612679565b604082019050919050565b60006020820190508181036000830152612704816126c8565b9050919050565b7f4552433732313a207472616e736665722066726f6d20696e636f72726563742060008201527f6f776e6572000000000000000000000000000000000000000000000000000000602082015250565b6000612767602583611d28565b91506127728261270b565b604082019050919050565b600060208201905081810360008301526127968161275a565b9050919050565b7f4552433732313a207472616e7366657220746f20746865207a65726f2061646460008201527f7265737300000000000000000000000000000000000000000000000000000000602082015250565b60006127f9602483611d28565b91506128048261279d565b604082019050919050565b60006020820190508181036000830152612828816127ec565b9050919050565b7f4f776e61626c653a2063616c6c6572206973206e6f7420746865206f776e6572600082015250565b6000612865602083611d28565b91506128708261282f565b602082019050919050565b6000602082019050818103600083015261289481612858565b9050919050565b7f4552433732313a20617070726f766520746f2063616c6c657200000000000000600082015250565b60006128d1601983611d28565b91506128dc8261289b565b602082019050919050565b60006020820190508181036000830152612900816128c4565b9050919050565b7f4552433732313a207472616e7366657220746f206e6f6e20455243373231526560008201527f63656976657220696d706c656d656e7465720000000000000000000000000000602082015250565b6000612963603283611d28565b915061296e82612907565b604082019050919050565b6000602082019050818103600083015261299281612956565b9050919050565b7f45524337323155524953746f726167653a2055524920736574206f66206e6f6e60008201527f6578697374656e7420746f6b656e000000000000000000000000000000000000602082015250565b60006129f5602e83611d28565b9150612a0082612999565b604082019050919050565b60006020820190508181036000830152612a24816129e8565b9050919050565b60008190508160005260206000209050919050565b60006020601f8301049050919050565b600082821b905092915050565b600060088302612a8d7fffffffffffffffffffffffffffffffffffffffffffffffffffffffffffffffff82612a50565b612a978683612a50565b95508019841693508086168417925050509392505050565b6000819050919050565b6000612ad4612acf612aca84611dcf565b612aaf565b611dcf565b9050919050565b6000819050919050565b612aee83612ab9565b612b02612afa82612adb565b848454612a5d565b825550505050565b600090565b612b17612b0a565b612b22818484612ae5565b505050565b5b81811015612b4657612b3b600082612b0f565b600181019050612b28565b5050565b601f821115612b8b57612b5c81612a2b565b612b6584612a40565b81016020851015612b74578190505b612b88612b8085612a40565b830182612b27565b50505b505050565b600082821c905092915050565b6000612bae60001984600802612b90565b1980831691505092915050565b6000612bc78383612b9d565b9150826002028217905092915050565b612be082611d1d565b67ffffffffffffffff811115612bf957612bf861201a565b5b612c038254612334565b612c0e828285612b4a565b600060209050601f831160018114612c415760008415612c2f578287015190505b612c398582612bbb565b865550612ca1565b601f198416612c4f86612a2b565b60005b82811015612c7757848901518255600182019150602085019450602081019050612c52565b86831015612c945784890151612c90601f891682612b9d565b8355505b6001600288020188555050505b505050505050565b600081519050919050565b600082825260208201905092915050565b6000612cd082612ca9565b612cda8185612cb4565b9350612cea818560208601611d39565b612cf381611d63565b840191505092915050565b6000608082019050612d136000830187611e64565b612d206020830186611e64565b612d2d6040830185611f7a565b8181036060830152612d3f8184612cc5565b905095945050505050565b600081519050612d5981611c8e565b92915050565b600060208284031215612d7557612d74611c58565b5b6000612d8384828501612d4a565b91505092915050565b7f4e487b7100000000000000000000000000000000000000000000000000000000600052601260045260246000fd5b7f4552433732313a206d696e7420746f20746865207a65726f2061646472657373600082015250565b6000612df1602083611d28565b9150612dfc82612dbb565b602082019050919050565b60006020820190508181036000830152612e2081612de4565b9050919050565b7f4552433732313a20746f6b656e20616c7265616479206d696e74656400000000600082015250565b6000612e5d601c83611d28565b9150612e6882612e27565b602082019050919050565b60006020820190508181036000830152612e8c81612e50565b905091905056fea2646970667358221220c6b2d293c020b60976cd60a808368f92f89655bab1f34deda537ceed032c071264736f6c63430008140033",
  "linkReferences": {},
  "deployedLinkReferences": {}
}